{"address":"0x8CFe7B2704802A72a82F9a253E45c6145EF2AF00","bytecode":"0x60806040523480156200001157600080fd5b5060405162000bba38038062000bba833981016040819052620000349162000147565b816001600160a01b0381166200006457604051631e4fbdf760e01b81526000600482015260240160405180910390fd5b6200006f81620000da565b50600180546001600160a01b0383166001600160a01b03199182161790915560038054821690556004805482169055600060058190556006805490921690915560078190556040805160208101909152908152600290620000d1908262000224565b505050620002f0565b600080546001600160a01b038381166001600160a01b0319831681178455604051919092169283917f8be0079c531659141344cd1fd0a4f28419497f9722a3daafe3b4186f6b6457e09190a35050565b80516001600160a01b03811681146200014257600080fd5b919050565b600080604083850312156200015b57600080fd5b62000166836200012a565b915062000176602084016200012a565b90509250929050565b634e487b7160e01b600052604160045260246000fd5b600181811c90821680620001aa57607f821691505b602082108103620001cb57634e487b7160e01b600052602260045260246000fd5b50919050565b601f8211156200021f57600081815260208120601f850160051c81016020861015620001fa5750805b601f850160051c820191505b818110156200021b5782815560010162000206565b5050505b505050565b81516001600160401b038111156200024057620002406200017f565b620002588162000251845462000195565b84620001d1565b602080601f831160018114620002905760008415620002775750858301515b600019600386901b1c1916600185901b1785556200021b565b600085815260208120601f198616915b82811015620002c157888601518255948401946001909101908401620002a0565b5085821015620002e05787850151600019600388901b60f8161c191681555b5050505050600190811b01905550565b6108ba80620003006000396000f3fe608060405234801561001057600080fd5b50600436106101005760003560e01c80638da5cb5b11610097578063e73a914c11610066578063e73a914c14610206578063e8a3d48514610219578063eb13554f1461022e578063f2fde38b1461023f57600080fd5b80638da5cb5b146101c7578063938e3d7b146101d8578063c63adb2b146101eb578063e2e784d5146101f357600080fd5b80634162169f116100d35780634162169f146101885780634c00de821461019b5780636f4f2837146101ac578063715018a6146101bf57600080fd5b8063079fe40e146101055780631e7ac4881461012f57806322dcd13e146101445780632a55205a14610156575b600080fd5b6003546001600160a01b03165b6040516001600160a01b0390911681526020015b60405180910390f35b61014261013d36600461056b565b610252565b005b6007545b604051908152602001610126565b610169610164366004610595565b6102d7565b604080516001600160a01b039093168352602083019190915201610126565b600154610112906001600160a01b031681565b6004546001600160a01b0316610112565b6101426101ba3660046105b7565b61030d565b610142610337565b6000546001600160a01b0316610112565b6101426101e63660046105ef565b61034b565b600554610148565b61014261020136600461056b565b610363565b6101426102143660046105b7565b6103d8565b610221610402565b60405161012691906106a0565b6006546001600160a01b0316610112565b61014261024d3660046105b7565b610494565b61025a6104d2565b6127108111156102b15760405162461bcd60e51b815260206004820152601760248201527f506c6174666f726d2066656520425053203e203130302500000000000000000060448201526064015b60405180910390fd5b600680546001600160a01b0319166001600160a01b039390931692909217909155600755565b6004546005546001600160a01b0390911690600090612710906102fa90856106ee565b6103049190610719565b90509250929050565b6103156104d2565b600380546001600160a01b0319166001600160a01b0392909216919091179055565b61033f6104d2565b61034960006104ff565b565b6103536104d2565b600261035f82826107c4565b5050565b61036b6104d2565b6127108111156103b25760405162461bcd60e51b8152602060048201526012602482015271526f79616c747920425053203e203130302560701b60448201526064016102a8565b600480546001600160a01b0319166001600160a01b039390931692909217909155600555565b6103e06104d2565b600180546001600160a01b0319166001600160a01b0392909216919091179055565b6060600280546104119061073b565b80601f016020809104026020016040519081016040528092919081815260200182805461043d9061073b565b801561048a5780601f1061045f5761010080835404028352916020019161048a565b820191906000526020600020905b81548152906001019060200180831161046d57829003601f168201915b5050505050905090565b61049c6104d2565b6001600160a01b0381166104c657604051631e4fbdf760e01b8152600060048201526024016102a8565b6104cf816104ff565b50565b6000546001600160a01b031633146103495760405163118cdaa760e01b81523360048201526024016102a8565b600080546001600160a01b038381166001600160a01b0319831681178455604051919092169283917f8be0079c531659141344cd1fd0a4f28419497f9722a3daafe3b4186f6b6457e09190a35050565b80356001600160a01b038116811461056657600080fd5b919050565b6000806040838503121561057e57600080fd5b6105878361054f565b946020939093013593505050565b600080604083850312156105a857600080fd5b50508035926020909101359150565b6000602082840312156105c957600080fd5b6105d28261054f565b9392505050565b634e487b7160e01b600052604160045260246000fd5b60006020828403121561060157600080fd5b813567ffffffffffffffff8082111561061957600080fd5b818401915084601f83011261062d57600080fd5b81358181111561063f5761063f6105d9565b604051601f8201601f19908116603f01168101908382118183101715610667576106676105d9565b8160405282815287602084870101111561068057600080fd5b826020860160208301376000928101602001929092525095945050505050565b600060208083528351808285015260005b818110156106cd578581018301518582016040015282016106b1565b506000604082860101526040601f19601f8301168501019250505092915050565b808202811582820484141761071357634e487b7160e01b600052601160045260246000fd5b92915050565b60008261073657634e487b7160e01b600052601260045260246000fd5b500490565b600181811c9082168061074f57607f821691505b60208210810361076f57634e487b7160e01b600052602260045260246000fd5b50919050565b601f8211156107bf57600081815260208120601f850160051c8101602086101561079c5750805b601f850160051c820191505b818110156107bb578281556001016107a8565b5050505b505050565b815167ffffffffffffffff8111156107de576107de6105d9565b6107f2816107ec845461073b565b84610775565b602080601f831160018114610827576000841561080f5750858301515b600019600386901b1c1916600185901b1785556107bb565b600085815260208120601f198616915b8281101561085657888601518255948401946001909101908401610837565b50858210156108745787850151600019600388901b60f8161c191681555b5050505050600190811b0190555056fea2646970667358221220eee208008367b4c7309bebd5185344893764e5e6e1f74365fe6c0db423fdb4d764736f6c63430008140033","abi":[{"inputs":[{"internalType":"address","name":"_owner","type":"address"},{"internalType":"address","name":"_dao","type":"address"}],"stateMutability":"nonpayable","type":"constructor"},{"inputs":[{"internalType":"address","name":"owner","type":"address"}],"name":"OwnableInvalidOwner","type":"error"},{"inputs":[{"internalType":"address","name":"account","type":"address"}],"name":"OwnableUnauthorizedAccount","type":"error"},{"anonymous":false,"inputs":[{"indexed":true,"internalType":"address","name":"previousOwner","type":"address"},{"indexed":true,"internalType":"address","name":"newOwner","type":"address"}],"name":"OwnershipTransferred","type":"event"},{"inputs":[],"name":"contractURI","outputs":[{"internalType":"string","name":"","type":"string"}],"stateMutability":"view","type":"function"},{"inputs":[],"name":"dao","outputs":[{"internalType":"address","name":"","type":"address"}],"stateMutability":"view","type":"function"},{"inputs":[],"name":"owner","outputs":[{"internalType":"address","name":"","type":"address"}],"stateMutability":"view","type":"function"},{"inputs":[],"name":"platformFeeBps","outputs":[{"internalType":"uint256","name":"","type":"uint256"}],"stateMutability":"view","type":"function"},{"inputs":[],"name":"platformFeeRecipient","outputs":[{"internalType":"address","name":"","type":"address"}],"stateMutability":"view","type":"function"},{"inputs":[],"name":"primarySaleRecipient","outputs":[{"internalType":"address","name":"","type":"address"}],"stateMutability":"view","type":"function"},{"inputs":[],"name":"renounceOwnership","outputs":[],"stateMutability":"nonpayable","type":"function"},{"inputs":[],"name":"royaltyBps","outputs":[{"internalType":"uint256","name":"","type":"uint256"}],"stateMutability":"view","type":"function"},{"inputs":[{"internalType":"uint256","name":"","type":"uint256"},{"internalType":"uint256","name":"salePrice","type":"uint256"}],"name":"royaltyInfo","outputs":[{"internalType":"address","name":"receiver","type":"address"},{"internalType":"uint256","name":"royaltyAmount","type":"uint256"}],"stateMutability":"view","type":"function"},{"inputs":[],"name":"royaltyRecipient","outputs":[{"internalType":"address","name":"","type":"address"}],"stateMutability":"view","type":"function"},{"inputs":[{"internalType":"string","name":"_uri","type":"string"}],"name":"setContractURI","outputs":[],"stateMutability":"nonpayable","type":"function"},{"inputs":[{"internalType":"address","name":"_newDAO","type":"address"}],"name":"setDAO","outputs":[],"stateMutability":"nonpayable","type":"function"},{"inputs":[{"internalType":"address","name":"_recipient","type":"address"},{"internalType":"uint256","name":"_bps","type":"uint256"}],"name":"setPlatformFeeInfo","outputs":[],"stateMutability":"nonpayable","type":"function"},{"inputs":[{"internalType":"address","name":"_recipient","type":"address"}],"name":"setPrimarySaleRecipient","outputs":[],"stateMutability":"nonpayable","type":"function"},{"inputs":[{"internalType":"address","name":"_recipient","type":"address"},{"internalType":"uint256","name":"_bps","type":"uint256"}],"name":"setRoyaltyInfo","outputs":[],"stateMutability":"nonpayable","type":"function"},{"inputs":[{"internalType":"address","name":"newOwner","type":"address"}],"name":"transferOwnership","outputs":[],"stateMutability":"nonpayable","type":"function"}]}